{"contracts/GaiaOracle.sol":{"GaiaOracle":{"abi":[{"inputs":[{"internalType":"address payable","name":"_schrodingerWallet","type":"address"}],"stateMutability":"nonpayable","type":"constructor"},{"anonymous":false,"inputs":[{"indexed":true,"internalType":"address","name":"user","type":"address"}],"name":"BiometricVerified","type":"event"},{"anonymous":false,"inputs":[{"indexed":true,"internalType":"string","name":"riddleId","type":"string"},{"indexed":false,"internalType":"string","name":"question","type":"string"}],"name":"RiddleCreated","type":"event"},{"inputs":[],"name":"admin","outputs":[{"internalType":"address","name":"","type":"address"}],"stateMutability":"view","type":"function"},{"inputs":[{"internalType":"string","name":"_riddleId","type":"string"},{"internalType":"string","name":"_question","type":"string"},{"internalType":"string","name":"_answer","type":"string"}],"name":"createRiddle","outputs":[],"stateMutability":"nonpayable","type":"function"},{"inputs":[{"internalType":"string","name":"","type":"string"}],"name":"riddleAnswers","outputs":[{"internalType":"bytes32","name":"","type":"bytes32"}],"stateMutability":"view","type":"function"},{"inputs":[],"name":"schrodingerWallet","outputs":[{"internalType":"contract SchrodingerWallet","name":"","type":"address"}],"stateMutability":"view","type":"function"},{"inputs":[{"internalType":"address payable","name":"_schrodingerWallet","type":"address"}],"name":"setSchrodingerWallet","outputs":[],"stateMutability":"nonpayable","type":"function"},{"inputs":[{"internalType":"address","name":"_user","type":"address"},{"internalType":"string","name":"_riddleId","type":"string"},{"internalType":"string","name":"_answer","type":"string"}],"name":"verifyRiddleAndProveLiveness","outputs":[],"stateMutability":"nonpayable","type":"function"},{"inputs":[{"internalType":"address","name":"_user","type":"address"},{"internalType":"bytes","name":"_voiceSignature","type":"bytes"}],"name":"verifyVoiceAndProveLiveness","outputs":[],"stateMutability":"nonpayable","type":"function"}],"evm":{"bytecode":{"linkReferences":{},"object":"608060405234801561001057600080fd5b506040516111cb3803806111cb83398181016040528101906100329190610151565b336000806101000a81548173ffffffffffffffffffffffffffffffffffffffff021916908373ffffffffffffffffffffffffffffffffffffffff160217905550600073ffffffffffffffffffffffffffffffffffffffff168173ffffffffffffffffffffffffffffffffffffffff16146100e85780600160006101000a81548173ffffffffffffffffffffffffffffffffffffffff021916908373ffffffffffffffffffffffffffffffffffffffff1602179055505b5061017e565b600080fd5b600073ffffffffffffffffffffffffffffffffffffffff82169050919050565b600061011e826100f3565b9050919050565b61012e81610113565b811461013957600080fd5b50565b60008151905061014b81610125565b92915050565b600060208284031215610167576101666100ee565b5b60006101758482850161013c565b91505092915050565b61103e8061018d6000396000f3fe608060405234801561001057600080fd5b506004361061007d5760003560e01c806321b9c70b1161005b57806321b9c70b146100ec5780638350795114610108578063de43d69e14610124578063f851a440146101405761007d565b8063136f47ac1461008257806317a44e521461009e57806318d68081146100bc575b600080fd5b61009c60048036038101906100979190610967565b61015e565b005b6100a6610349565b6040516100b39190610a51565b60405180910390f35b6100d660048036038101906100d19190610a6c565b61036f565b6040516100e39190610ace565b60405180910390f35b61010660048036038101906101019190610b27565b61039d565b005b610122600480360381019061011d9190610bf5565b610500565b005b61013e60048036038101906101399190610c51565b610662565b005b61014861078b565b6040516101559190610d07565b60405180910390f35b60008054906101000a900473ffffffffffffffffffffffffffffffffffffffff1673ffffffffffffffffffffffffffffffffffffffff163373ffffffffffffffffffffffffffffffffffffffff16146101ec576040517f08c379a00000000000000000000000000000000000000000000000000000000081526004016101e390610d7f565b60405180910390fd5b806040516020016101fd9190610e10565b604051602081830303815290604052805190602001206002836040516102239190610e10565b90815260200160405180910390205414610272576040517f08c379a000000000000000000000000000000000000000000000000000000000815260040161026990610e73565b60405180910390fd5b600160009054906101000a900473ffffffffffffffffffffffffffffffffffffffff1673ffffffffffffffffffffffffffffffffffffffff1663b89fec2a83836040518363ffffffff1660e01b81526004016102cf929190610ecc565b600060405180830381600087803b1580156102e957600080fd5b505af11580156102fd573d6000803e3d6000fd5b505050508273ffffffffffffffffffffffffffffffffffffffff167f833bedda8ba73ebcf1138b07b08999d0aa620d66cf30c4ecbde070ea6f3a3c6060405160405180910390a2505050565b600160009054906101000a900473ffffffffffffffffffffffffffffffffffffffff1681565b6002818051602081018201805184825260208301602085012081835280955050505050506000915090505481565b60008054906101000a900473ffffffffffffffffffffffffffffffffffffffff1673ffffffffffffffffffffffffffffffffffffffff163373ffffffffffffffffffffffffffffffffffffffff161461042b576040517f08c379a000000000000000000000000000000000000000000000000000000000815260040161042290610d7f565b60405180910390fd5b600073ffffffffffffffffffffffffffffffffffffffff16600160009054906101000a900473ffffffffffffffffffffffffffffffffffffffff1673ffffffffffffffffffffffffffffffffffffffff16146104bc576040517f08c379a00000000000000000000000000000000000000000000000000000000081526004016104b390610f4f565b60405180910390fd5b80600160006101000a81548173ffffffffffffffffffffffffffffffffffffffff021916908373ffffffffffffffffffffffffffffffffffffffff16021790555050565b60008054906101000a900473ffffffffffffffffffffffffffffffffffffffff1673ffffffffffffffffffffffffffffffffffffffff163373ffffffffffffffffffffffffffffffffffffffff161461058e576040517f08c379a000000000000000000000000000000000000000000000000000000000815260040161058590610d7f565b60405180910390fd5b600160009054906101000a900473ffffffffffffffffffffffffffffffffffffffff1673ffffffffffffffffffffffffffffffffffffffff1663fec008c3826040518263ffffffff1660e01b81526004016105e99190610fc4565b600060405180830381600087803b15801561060357600080fd5b505af1158015610617573d6000803e3d6000fd5b505050508173ffffffffffffffffffffffffffffffffffffffff167f833bedda8ba73ebcf1138b07b08999d0aa620d66cf30c4ecbde070ea6f3a3c6060405160405180910390a25050565b60008054906101000a900473ffffffffffffffffffffffffffffffffffffffff1673ffffffffffffffffffffffffffffffffffffffff163373ffffffffffffffffffffffffffffffffffffffff16146106f0576040517f08c379a00000000000000000000000000000000000000000000000000000000081526004016106e790610d7f565b60405180910390fd5b806040516020016107019190610e10565b604051602081830303815290604052805190602001206002846040516107279190610e10565b908152602001604051809103902081905550826040516107479190610e10565b60405180910390207f86e015a9ada3ed3e2ed686b865e03db71833d95a865cd5ee58e9f10990c88ead8360405161077e9190610fe6565b60405180910390a2505050565b60008054906101000a900473ffffffffffffffffffffffffffffffffffffffff1681565b6000604051905090565b600080fd5b600080fd5b600073ffffffffffffffffffffffffffffffffffffffff82169050919050565b60006107ee826107c3565b9050919050565b6107fe816107e3565b811461080957600080fd5b50565b60008135905061081b816107f5565b92915050565b600080fd5b600080fd5b6000601f19601f8301169050919050565b7f4e487b7100000000000000000000000000000000000000000000000000000000600052604160045260246000fd5b6108748261082b565b810181811067ffffffffffffffff821117156108935761089261083c565b5b80604052505050565b60006108a66107af565b90506108b2828261086b565b919050565b600067ffffffffffffffff8211156108d2576108d161083c565b5b6108db8261082b565b9050602081019050919050565b82818337600083830152505050565b600061090a610905846108b7565b61089c565b90508281526020810184848401111561092657610925610826565b5b6109318482856108e8565b509392505050565b600082601f83011261094e5761094d610821565b5b813561095e8482602086016108f7565b91505092915050565b6000806000606084860312156109805761097f6107b9565b5b600061098e8682870161080c565b935050602084013567ffffffffffffffff8111156109af576109ae6107be565b5b6109bb86828701610939565b925050604084013567ffffffffffffffff8111156109dc576109db6107be565b5b6109e886828701610939565b9150509250925092565b6000819050919050565b6000610a17610a12610a0d846107c3565b6109f2565b6107c3565b9050919050565b6000610a29826109fc565b9050919050565b6000610a3b82610a1e565b9050919050565b610a4b81610a30565b82525050565b6000602082019050610a666000830184610a42565b92915050565b600060208284031215610a8257610a816107b9565b5b600082013567ffffffffffffffff811115610aa057610a9f6107be565b5b610aac84828501610939565b91505092915050565b6000819050919050565b610ac881610ab5565b82525050565b6000602082019050610ae36000830184610abf565b92915050565b6000610af4826107c3565b9050919050565b610b0481610ae9565b8114610b0f57600080fd5b50565b600081359050610b2181610afb565b92915050565b600060208284031215610b3d57610b3c6107b9565b5b6000610b4b84828501610b12565b91505092915050565b600067ffffffffffffffff821115610b6f57610b6e61083c565b5b610b788261082b565b9050602081019050919050565b6000610b98610b9384610b54565b61089c565b905082815260208101848484011115610bb457610bb3610826565b5b610bbf8482856108e8565b509392505050565b600082601f830112610bdc57610bdb610821565b5b8135610bec848260208601610b85565b91505092915050565b60008060408385031215610c0c57610c0b6107b9565b5b6000610c1a8582860161080c565b925050602083013567ffffffffffffffff811115610c3b57610c3a6107be565b5b610c4785828601610bc7565b9150509250929050565b600080600060608486031215610c6a57610c696107b9565b5b600084013567ffffffffffffffff811115610c8857610c876107be565b5b610c9486828701610939565b935050602084013567ffffffffffffffff811115610cb557610cb46107be565b5b610cc186828701610939565b925050604084013567ffffffffffffffff811115610ce257610ce16107be565b5b610cee86828701610939565b9150509250925092565b610d01816107e3565b82525050565b6000602082019050610d1c6000830184610cf8565b92915050565b600082825260208201905092915050565b7f4f6e6c792061646d696e00000000000000000000000000000000000000000000600082015250565b6000610d69600a83610d22565b9150610d7482610d33565b602082019050919050565b60006020820190508181036000830152610d9881610d5c565b9050919050565b600081519050919050565b600081905092915050565b60005b83811015610dd3578082015181840152602081019050610db8565b60008484015250505050565b6000610dea82610d9f565b610df48185610daa565b9350610e04818560208601610db5565b80840191505092915050565b6000610e1c8284610ddf565b915081905092915050565b7f496e636f727265637420616e7377657200000000000000000000000000000000600082015250565b6000610e5d601083610d22565b9150610e6882610e27565b602082019050919050565b60006020820190508181036000830152610e8c81610e50565b9050919050565b6000610e9e82610d9f565b610ea88185610d22565b9350610eb8818560208601610db5565b610ec18161082b565b840191505092915050565b60006040820190508181036000830152610ee68185610e93565b90508181036020830152610efa8184610e93565b90509392505050565b7f57616c6c657420616c7265616479207365740000000000000000000000000000600082015250565b6000610f39601283610d22565b9150610f4482610f03565b602082019050919050565b60006020820190508181036000830152610f6881610f2c565b9050919050565b600081519050919050565b600082825260208201905092915050565b6000610f9682610f6f565b610fa08185610f7a565b9350610fb0818560208601610db5565b610fb98161082b565b840191505092915050565b60006020820190508181036000830152610fde8184610f8b565b905092915050565b600060208201905081810360008301526110008184610e93565b90509291505056fea264697066735822122037244d9c8d2dbc5d002d271abeec98fd4745681f7971ffd81884d643f347b18764736f6c63430008190033","opcodes":"PUSH1 0x80 PUSH1 0x40 MSTORE CALLVALUE DUP1 ISZERO PUSH2 0x10 JUMPI PUSH1 0x0 DUP1 REVERT JUMPDEST POP PUSH1 0x40 MLOAD PUSH2 0x11CB CODESIZE SUB DUP1 PUSH2 0x11CB DUP4 CODECOPY DUP2 DUP2 ADD PUSH1 0x40 MSTORE DUP2 ADD SWAP1 PUSH2 0x32 SWAP2 SWAP1 PUSH2 0x151 JUMP JUMPDEST CALLER PUSH1 0x0 DUP1 PUSH2 0x100 EXP DUP2 SLOAD DUP2 PUSH20 0xFFFFFFFFFFFFFFFFFFFFFFFFFFFFFFFFFFFFFFFF MUL NOT AND SWAP1 DUP4 PUSH20 0xFFFFFFFFFFFFFFFFFFFFFFFFFFFFFFFFFFFFFFFF AND MUL OR SWAP1 SSTORE POP PUSH1 0x0 PUSH20 0xFFFFFFFFFFFFFFFFFFFFFFFFFFFFFFFFFFFFFFFF AND DUP2 PUSH20 0xFFFFFFFFFFFFFFFFFFFFFFFFFFFFFFFFFFFFFFFF AND EQ PUSH2 0xE8 JUMPI DUP1 PUSH1 0x1 PUSH1 0x0 PUSH2 0x100 EXP DUP2 SLOAD DUP2 PUSH20 0xFFFFFFFFFFFFFFFFFFFFFFFFFFFFFFFFFFFFFFFF MUL NOT AND SWAP1 DUP4 PUSH20 0xFFFFFFFFFFFFFFFFFFFFFFFFFFFFFFFFFFFFFFFF AND MUL OR SWAP1 SSTORE POP JUMPDEST POP PUSH2 0x17E JUMP JUMPDEST PUSH1 0x0 DUP1 REVERT JUMPDEST PUSH1 0x0 PUSH20 0xFFFFFFFFFFFFFFFFFFFFFFFFFFFFFFFFFFFFFFFF DUP3 AND SWAP1 POP SWAP2 SWAP1 POP JUMP JUMPDEST PUSH1 0x0 PUSH2 0x11E DUP3 PUSH2 0xF3 JUMP JUMPDEST SWAP1 POP SWAP2 SWAP1 POP JUMP JUMPDEST PUSH2 0x12E DUP2 PUSH2 0x113 JUMP JUMPDEST DUP2 EQ PUSH2 0x139 JUMPI PUSH1 0x0 DUP1 REVERT JUMPDEST POP JUMP JUMPDEST PUSH1 0x0 DUP2 MLOAD SWAP1 POP PUSH2 0x14B DUP2 PUSH2 0x125 JUMP JUMPDEST SWAP3 SWAP2 POP POP JUMP JUMPDEST PUSH1 0x0 PUSH1 0x20 DUP3 DUP5 SUB SLT ISZERO PUSH2 0x167 JUMPI PUSH2 0x166 PUSH2 0xEE JUMP JUMPDEST JUMPDEST PUSH1 0x0 PUSH2 0x175 DUP5 DUP3 DUP6 ADD PUSH2 0x13C JUMP JUMPDEST SWAP2 POP POP SWAP3 SWAP2 POP POP JUMP JUMPDEST PUSH2 0x103E DUP1 PUSH2 0x18D PUSH1 0x0 CODECOPY PUSH1 0x0 RETURN INVALID PUSH1 0x80 PUSH1 0x40 MSTORE CALLVALUE DUP1 ISZERO PUSH2 0x10 JUMPI PUSH1 0x0 DUP1 REVERT JUMPDEST POP PUSH1 0x4 CALLDATASIZE LT PUSH2 0x7D JUMPI PUSH1 0x0 CALLDATALOAD PUSH1 0xE0 SHR DUP1 PUSH4 0x21B9C70B GT PUSH2 0x5B JUMPI DUP1 PUSH4 0x21B9C70B EQ PUSH2 0xEC JUMPI DUP1 PUSH4 0x83507951 EQ PUSH2 0x108 JUMPI DUP1 PUSH4 0xDE43D69E EQ PUSH2 0x124 JUMPI DUP1 PUSH4 0xF851A440 EQ PUSH2 0x140 JUMPI PUSH2 0x7D JUMP JUMPDEST DUP1 PUSH4 0x136F47AC EQ PUSH2 0x82 JUMPI DUP1 PUSH4 0x17A44E52 EQ PUSH2 0x9E JUMPI DUP1 PUSH4 0x18D68081 EQ PUSH2 0xBC JUMPI JUMPDEST PUSH1 0x0 DUP1 REVERT JUMPDEST PUSH2 0x9C PUSH1 0x4 DUP1 CALLDATASIZE SUB DUP2 ADD SWAP1 PUSH2 0x97 SWAP2 SWAP1 PUSH2 0x967 JUMP JUMPDEST PUSH2 0x15E JUMP JUMPDEST STOP JUMPDEST PUSH2 0xA6 PUSH2 0x349 JUMP JUMPDEST PUSH1 0x40 MLOAD PUSH2 0xB3 SWAP2 SWAP1 PUSH2 0xA51 JUMP JUMPDEST PUSH1 0x40 MLOAD DUP1 SWAP2 SUB SWAP1 RETURN JUMPDEST PUSH2 0xD6 PUSH1 0x4 DUP1 CALLDATASIZE SUB DUP2 ADD SWAP1 PUSH2 0xD1 SWAP2 SWAP1 PUSH2 0xA6C JUMP JUMPDEST PUSH2 0x36F JUMP JUMPDEST PUSH1 0x40 MLOAD PUSH2 0xE3 SWAP2 SWAP1 PUSH2 0xACE JUMP JUMPDEST PUSH1 0x40 MLOAD DUP1 SWAP2 SUB SWAP1 RETURN JUMPDEST PUSH2 0x106 PUSH1 0x4 DUP1 CALLDATASIZE SUB DUP2 ADD SWAP1 PUSH2 0x101 SWAP2 SWAP1 PUSH2 0xB27 JUMP JUMPDEST PUSH2 0x39D JUMP JUMPDEST STOP JUMPDEST PUSH2 0x122 PUSH1 0x4 DUP1 CALLDATASIZE SUB DUP2 ADD SWAP1 PUSH2 0x11D SWAP2 SWAP1 PUSH2 0xBF5 JUMP JUMPDEST PUSH2 0x500 JUMP JUMPDEST STOP JUMPDEST PUSH2 0x13E PUSH1 0x4 DUP1 CALLDATASIZE SUB DUP2 ADD SWAP1 PUSH2 0x139 SWAP2 SWAP1 PUSH2 0xC51 JUMP JUMPDEST PUSH2 0x662 JUMP JUMPDEST STOP JUMPDEST PUSH2 0x148 PUSH2 0x78B JUMP JUMPDEST PUSH1 0x40 MLOAD PUSH2 0x155 SWAP2 SWAP1 PUSH2 0xD07 JUMP JUMPDEST PUSH1 0x40 MLOAD DUP1 SWAP2 SUB SWAP1 RETURN JUMPDEST PUSH1 0x0 DUP1 SLOAD SWAP1 PUSH2 0x100 EXP SWAP1 DIV PUSH20 0xFFFFFFFFFFFFFFFFFFFFFFFFFFFFFFFFFFFFFFFF AND PUSH20 0xFFFFFFFFFFFFFFFFFFFFFFFFFFFFFFFFFFFFFFFF AND CALLER PUSH20 0xFFFFFFFFFFFFFFFFFFFFFFFFFFFFFFFFFFFFFFFF AND EQ PUSH2 0x1EC JUMPI PUSH1 0x40 MLOAD PUSH32 0x8C379A000000000000000000000000000000000000000000000000000000000 DUP2 MSTORE PUSH1 0x4 ADD PUSH2 0x1E3 SWAP1 PUSH2 0xD7F JUMP JUMPDEST PUSH1 0x40 MLOAD DUP1 SWAP2 SUB SWAP1 REVERT JUMPDEST DUP1 PUSH1 0x40 MLOAD PUSH1 0x20 ADD PUSH2 0x1FD SWAP2 SWAP1 PUSH2 0xE10 JUMP JUMPDEST PUSH1 0x40 MLOAD PUSH1 0x20 DUP2 DUP4 SUB SUB DUP2 MSTORE SWAP1 PUSH1 0x40 MSTORE DUP1 MLOAD SWAP1 PUSH1 0x20 ADD KECCAK256 PUSH1 0x2 DUP4 PUSH1 0x40 MLOAD PUSH2 0x223 SWAP2 SWAP1 PUSH2 0xE10 JUMP JUMPDEST SWAP1 DUP2 MSTORE PUSH1 0x20 ADD PUSH1 0x40 MLOAD DUP1 SWAP2 SUB SWAP1 KECCAK256 SLOAD EQ PUSH2 0x272 JUMPI PUSH1 0x40 MLOAD PUSH32 0x8C379A000000000000000000000000000000000000000000000000000000000 DUP2 MSTORE PUSH1 0x4 ADD PUSH2 0x269 SWAP1 PUSH2 0xE73 JUMP JUMPDEST PUSH1 0x40 MLOAD DUP1 SWAP2 SUB SWAP1 REVERT JUMPDEST PUSH1 0x1 PUSH1 0x0 SWAP1 SLOAD SWAP1 PUSH2 0x100 EXP SWAP1 DIV PUSH20 0xFFFFFFFFFFFFFFFFFFFFFFFFFFFFFFFFFFFFFFFF AND PUSH20 0xFFFFFFFFFFFFFFFFFFFFFFFFFFFFFFFFFFFFFFFF AND PUSH4 0xB89FEC2A DUP4 DUP4 PUSH1 0x40 MLOAD DUP4 PUSH4 0xFFFFFFFF AND PUSH1 0xE0 SHL DUP2 MSTORE PUSH1 0x4 ADD PUSH2 0x2CF SWAP3 SWAP2 SWAP1 PUSH2 0xECC JUMP JUMPDEST PUSH1 0x0 PUSH1 0x40 MLOAD DUP1 DUP4 SUB DUP2 PUSH1 0x0 DUP8 DUP1 EXTCODESIZE ISZERO DUP1 ISZERO PUSH2 0x2E9 JUMPI PUSH1 0x0 DUP1 REVERT JUMPDEST POP GAS CALL ISZERO DUP1 ISZERO PUSH2 0x2FD JUMPI RETURNDATASIZE PUSH1 0x0 DUP1 RETURNDATACOPY RETURNDATASIZE PUSH1 0x0 REVERT JUMPDEST POP POP POP POP DUP3 PUSH20 0xFFFFFFFFFFFFFFFFFFFFFFFFFFFFFFFFFFFFFFFF AND PUSH32 0x833BEDDA8BA73EBCF1138B07B08999D0AA620D66CF30C4ECBDE070EA6F3A3C60 PUSH1 0x40 MLOAD PUSH1 0x40 MLOAD DUP1 SWAP2 SUB SWAP1 LOG2 POP POP POP JUMP JUMPDEST PUSH1 0x1 PUSH1 0x0 SWAP1 SLOAD SWAP1 PUSH2 0x100 EXP SWAP1 DIV PUSH20 0xFFFFFFFFFFFFFFFFFFFFFFFFFFFFFFFFFFFFFFFF AND DUP2 JUMP JUMPDEST PUSH1 0x2 DUP2 DUP1 MLOAD PUSH1 0x20 DUP2 ADD DUP3 ADD DUP1 MLOAD DUP5 DUP3 MSTORE PUSH1 0x20 DUP4 ADD PUSH1 0x20 DUP6 ADD KECCAK256 DUP2 DUP4 MSTORE DUP1 SWAP6 POP POP POP POP POP POP PUSH1 0x0 SWAP2 POP SWAP1 POP SLOAD DUP2 JUMP JUMPDEST PUSH1 0x0 DUP1 SLOAD SWAP1 PUSH2 0x100 EXP SWAP1 DIV PUSH20 0xFFFFFFFFFFFFFFFFFFFFFFFFFFFFFFFFFFFFFFFF AND PUSH20 0xFFFFFFFFFFFFFFFFFFFFFFFFFFFFFFFFFFFFFFFF AND CALLER PUSH20 0xFFFFFFFFFFFFFFFFFFFFFFFFFFFFFFFFFFFFFFFF AND EQ PUSH2 0x42B JUMPI PUSH1 0x40 MLOAD PUSH32 0x8C379A000000000000000000000000000000000000000000000000000000000 DUP2 MSTORE PUSH1 0x4 ADD PUSH2 0x422 SWAP1 PUSH2 0xD7F JUMP JUMPDEST PUSH1 0x40 MLOAD DUP1 SWAP2 SUB SWAP1 REVERT JUMPDEST PUSH1 0x0 PUSH20 0xFFFFFFFFFFFFFFFFFFFFFFFFFFFFFFFFFFFFFFFF AND PUSH1 0x1 PUSH1 0x0 SWAP1 SLOAD SWAP1 PUSH2 0x100 EXP SWAP1 DIV PUSH20 0xFFFFFFFFFFFFFFFFFFFFFFFFFFFFFFFFFFFFFFFF AND PUSH20 0xFFFFFFFFFFFFFFFFFFFFFFFFFFFFFFFFFFFFFFFF AND EQ PUSH2 0x4BC JUMPI PUSH1 0x40 MLOAD PUSH32 0x8C379A000000000000000000000000000000000000000000000000000000000 DUP2 MSTORE PUSH1 0x4 ADD PUSH2 0x4B3 SWAP1 PUSH2 0xF4F JUMP JUMPDEST PUSH1 0x40 MLOAD DUP1 SWAP2 SUB SWAP1 REVERT JUMPDEST DUP1 PUSH1 0x1 PUSH1 0x0 PUSH2 0x100 EXP DUP2 SLOAD DUP2 PUSH20 0xFFFFFFFFFFFFFFFFFFFFFFFFFFFFFFFFFFFFFFFF MUL NOT AND SWAP1 DUP4 PUSH20 0xFFFFFFFFFFFFFFFFFFFFFFFFFFFFFFFFFFFFFFFF AND MUL OR SWAP1 SSTORE POP POP JUMP JUMPDEST PUSH1 0x0 DUP1 SLOAD SWAP1 PUSH2 0x100 EXP SWAP1 DIV PUSH20 0xFFFFFFFFFFFFFFFFFFFFFFFFFFFFFFFFFFFFFFFF AND PUSH20 0xFFFFFFFFFFFFFFFFFFFFFFFFFFFFFFFFFFFFFFFF AND CALLER PUSH20 0xFFFFFFFFFFFFFFFFFFFFFFFFFFFFFFFFFFFFFFFF AND EQ PUSH2 0x58E JUMPI PUSH1 0x40 MLOAD PUSH32 0x8C379A000000000000000000000000000000000000000000000000000000000 DUP2 MSTORE PUSH1 0x4 ADD PUSH2 0x585 SWAP1 PUSH2 0xD7F JUMP JUMPDEST PUSH1 0x40 MLOAD DUP1 SWAP2 SUB SWAP1 REVERT JUMPDEST PUSH1 0x1 PUSH1 0x0 SWAP1 SLOAD SWAP1 PUSH2 0x100 EXP SWAP1 DIV PUSH20 0xFFFFFFFFFFFFFFFFFFFFFFFFFFFFFFFFFFFFFFFF AND PUSH20 0xFFFFFFFFFFFFFFFFFFFFFFFFFFFFFFFFFFFFFFFF AND PUSH4 0xFEC008C3 DUP3 PUSH1 0x40 MLOAD DUP3 PUSH4 0xFFFFFFFF AND PUSH1 0xE0 SHL DUP2 MSTORE PUSH1 0x4 ADD PUSH2 0x5E9 SWAP2 SWAP1 PUSH2 0xFC4 JUMP JUMPDEST PUSH1 0x0 PUSH1 0x40 MLOAD DUP1 DUP4 SUB DUP2 PUSH1 0x0 DUP8 DUP1 EXTCODESIZE ISZERO DUP1 ISZERO PUSH2 0x603 JUMPI PUSH1 0x0 DUP1 REVERT JUMPDEST POP GAS CALL ISZERO DUP1 ISZERO PUSH2 0x617 JUMPI RETURNDATASIZE PUSH1 0x0 DUP1 RETURNDATACOPY RETURNDATASIZE PUSH1 0x0 REVERT JUMPDEST POP POP POP POP DUP2 PUSH20 0xFFFFFFFFFFFFFFFFFFFFFFFFFFFFFFFFFFFFFFFF AND PUSH32 0x833BEDDA8BA73EBCF1138B07B08999D0AA620D66CF30C4ECBDE070EA6F3A3C60 PUSH1 0x40 MLOAD PUSH1 0x40 MLOAD DUP1 SWAP2 SUB SWAP1 LOG2 POP POP JUMP JUMPDEST PUSH1 0x0 DUP1 SLOAD SWAP1 PUSH2 0x100 EXP SWAP1 DIV PUSH20 0xFFFFFFFFFFFFFFFFFFFFFFFFFFFFFFFFFFFFFFFF AND PUSH20 0xFFFFFFFFFFFFFFFFFFFFFFFFFFFFFFFFFFFFFFFF AND CALLER PUSH20 0xFFFFFFFFFFFFFFFFFFFFFFFFFFFFFFFFFFFFFFFF AND EQ PUSH2 0x6F0 JUMPI PUSH1 0x40 MLOAD PUSH32 0x8C379A000000000000000000000000000000000000000000000000000000000 DUP2 MSTORE PUSH1 0x4 ADD PUSH2 0x6E7 SWAP1 PUSH2 0xD7F JUMP JUMPDEST PUSH1 0x40 MLOAD DUP1 SWAP2 SUB SWAP1 REVERT JUMPDEST DUP1 PUSH1 0x40 MLOAD PUSH1 0x20 ADD PUSH2 0x701 SWAP2 SWAP1 PUSH2 0xE10 JUMP JUMPDEST PUSH1 0x40 MLOAD PUSH1 0x20 DUP2 DUP4 SUB SUB DUP2 MSTORE SWAP1 PUSH1 0x40 MSTORE DUP1 MLOAD SWAP1 PUSH1 0x20 ADD KECCAK256 PUSH1 0x2 DUP5 PUSH1 0x40 MLOAD PUSH2 0x727 SWAP2 SWAP1 PUSH2 0xE10 JUMP JUMPDEST SWAP1 DUP2 MSTORE PUSH1 0x20 ADD PUSH1 0x40 MLOAD DUP1 SWAP2 SUB SWAP1 KECCAK256 DUP2 SWAP1 SSTORE POP DUP3 PUSH1 0x40 MLOAD PUSH2 0x747 SWAP2 SWAP1 PUSH2 0xE10 JUMP JUMPDEST PUSH1 0x40 MLOAD DUP1 SWAP2 SUB SWAP1 KECCAK256 PUSH32 0x86E015A9ADA3ED3E2ED686B865E03DB71833D95A865CD5EE58E9F10990C88EAD DUP4 PUSH1 0x40 MLOAD PUSH2 0x77E SWAP2 SWAP1 PUSH2 0xFE6 JUMP JUMPDEST PUSH1 0x40 MLOAD DUP1 SWAP2 SUB SWAP1 LOG2 POP POP POP JUMP JUMPDEST PUSH1 0x0 DUP1 SLOAD SWAP1 PUSH2 0x100 EXP SWAP1 DIV PUSH20 0xFFFFFFFFFFFFFFFFFFFFFFFFFFFFFFFFFFFFFFFF AND DUP2 JUMP JUMPDEST PUSH1 0x0 PUSH1 0x40 MLOAD SWAP1 POP SWAP1 JUMP JUMPDEST PUSH1 0x0 DUP1 REVERT JUMPDEST PUSH1 0x0 DUP1 REVERT JUMPDEST PUSH1 0x0 PUSH20 0xFFFFFFFFFFFFFFFFFFFFFFFFFFFFFFFFFFFFFFFF DUP3 AND SWAP1 POP SWAP2 SWAP1 POP JUMP JUMPDEST PUSH1 0x0 PUSH2 0x7EE DUP3 PUSH2 0x7C3 JUMP JUMPDEST SWAP1 POP SWAP2 SWAP1 POP JUMP JUMPDEST PUSH2 0x7FE DUP2 PUSH2 0x7E3 JUMP JUMPDEST DUP2 EQ PUSH2 0x809 JUMPI PUSH1 0x0 DUP1 REVERT JUMPDEST POP JUMP JUMPDEST PUSH1 0x0 DUP2 CALLDATALOAD SWAP1 POP PUSH2 0x81B DUP2 PUSH2 0x7F5 JUMP JUMPDEST SWAP3 SWAP2 POP POP JUMP JUMPDEST PUSH1 0x0 DUP1 REVERT JUMPDEST PUSH1 0x0 DUP1 REVERT JUMPDEST PUSH1 0x0 PUSH1 0x1F NOT PUSH1 0x1F DUP4 ADD AND SWAP1 POP SWAP2 SWAP1 POP JUMP JUMPDEST PUSH32 0x4E487B7100000000000000000000000000000000000000000000000000000000 PUSH1 0x0 MSTORE PUSH1 0x41 PUSH1 0x4 MSTORE PUSH1 0x24 PUSH1 0x0 REVERT JUMPDEST PUSH2 0x874 DUP3 PUSH2 0x82B JUMP JUMPDEST DUP2 ADD DUP2 DUP2 LT PUSH8 0xFFFFFFFFFFFFFFFF DUP3 GT OR ISZERO PUSH2 0x893 JUMPI PUSH2 0x892 PUSH2 0x83C JUMP JUMPDEST JUMPDEST DUP1 PUSH1 0x40 MSTORE POP POP POP JUMP JUMPDEST PUSH1 0x0 PUSH2 0x8A6 PUSH2 0x7AF JUMP JUMPDEST SWAP1 POP PUSH2 0x8B2 DUP3 DUP3 PUSH2 0x86B JUMP JUMPDEST SWAP2 SWAP1 POP JUMP JUMPDEST PUSH1 0x0 PUSH8 0xFFFFFFFFFFFFFFFF DUP3 GT ISZERO PUSH2 0x8D2 JUMPI PUSH2 0x8D1 PUSH2 0x83C JUMP JUMPDEST JUMPDEST PUSH2 0x8DB DUP3 PUSH2 0x82B JUMP JUMPDEST SWAP1 POP PUSH1 0x20 DUP2 ADD SWAP1 POP SWAP2 SWAP1 POP JUMP JUMPDEST DUP3 DUP2 DUP4 CALLDATACOPY PUSH1 0x0 DUP4 DUP4 ADD MSTORE POP POP POP JUMP JUMPDEST PUSH1 0x0 PUSH2 0x90A PUSH2 0x905 DUP5 PUSH2 0x8B7 JUMP JUMPDEST PUSH2 0x89C JUMP JUMPDEST SWAP1 POP DUP3 DUP2 MSTORE PUSH1 0x20 DUP2 ADD DUP5 DUP5 DUP5 ADD GT ISZERO PUSH2 0x926 JUMPI PUSH2 0x925 PUSH2 0x826 JUMP JUMPDEST JUMPDEST PUSH2 0x931 DUP5 DUP3 DUP6 PUSH2 0x8E8 JUMP JUMPDEST POP SWAP4 SWAP3 POP POP POP JUMP JUMPDEST PUSH1 0x0 DUP3 PUSH1 0x1F DUP4 ADD SLT PUSH2 0x94E JUMPI PUSH2 0x94D PUSH2 0x821 JUMP JUMPDEST JUMPDEST DUP2 CALLDATALOAD PUSH2 0x95E DUP5 DUP3 PUSH1 0x20 DUP7 ADD PUSH2 0x8F7 JUMP JUMPDEST SWAP2 POP POP SWAP3 SWAP2 POP POP JUMP JUMPDEST PUSH1 0x0 DUP1 PUSH1 0x0 PUSH1 0x60 DUP5 DUP7 SUB SLT ISZERO PUSH2 0x980 JUMPI PUSH2 0x97F PUSH2 0x7B9 JUMP JUMPDEST JUMPDEST PUSH1 0x0 PUSH2 0x98E DUP7 DUP3 DUP8 ADD PUSH2 0x80C JUMP JUMPDEST SWAP4 POP POP PUSH1 0x20 DUP5 ADD CALLDATALOAD PUSH8 0xFFFFFFFFFFFFFFFF DUP2 GT ISZERO PUSH2 0x9AF JUMPI PUSH2 0x9AE PUSH2 0x7BE JUMP JUMPDEST JUMPDEST PUSH2 0x9BB DUP7 DUP3 DUP8 ADD PUSH2 0x939 JUMP JUMPDEST SWAP3 POP POP PUSH1 0x40 DUP5 ADD CALLDATALOAD PUSH8 0xFFFFFFFFFFFFFFFF DUP2 GT ISZERO PUSH2 0x9DC JUMPI PUSH2 0x9DB PUSH2 0x7BE JUMP JUMPDEST JUMPDEST PUSH2 0x9E8 DUP7 DUP3 DUP8 ADD PUSH2 0x939 JUMP JUMPDEST SWAP2 POP POP SWAP3 POP SWAP3 POP SWAP3 JUMP JUMPDEST PUSH1 0x0 DUP2 SWAP1 POP SWAP2 SWAP1 POP JUMP JUMPDEST PUSH1 0x0 PUSH2 0xA17 PUSH2 0xA12 PUSH2 0xA0D DUP5 PUSH2 0x7C3 JUMP JUMPDEST PUSH2 0x9F2 JUMP JUMPDEST PUSH2 0x7C3 JUMP JUMPDEST SWAP1 POP SWAP2 SWAP1 POP JUMP JUMPDEST PUSH1 0x0 PUSH2 0xA29 DUP3 PUSH2 0x9FC JUMP JUMPDEST SWAP1 POP SWAP2 SWAP1 POP JUMP JUMPDEST PUSH1 0x0 PUSH2 0xA3B DUP3 PUSH2 0xA1E JUMP JUMPDEST SWAP1 POP SWAP2 SWAP1 POP JUMP JUMPDEST PUSH2 0xA4B DUP2 PUSH2 0xA30 JUMP JUMPDEST DUP3 MSTORE POP POP JUMP JUMPDEST PUSH1 0x0 PUSH1 0x20 DUP3 ADD SWAP1 POP PUSH2 0xA66 PUSH1 0x0 DUP4 ADD DUP5 PUSH2 0xA42 JUMP JUMPDEST SWAP3 SWAP2 POP POP JUMP JUMPDEST PUSH1 0x0 PUSH1 0x20 DUP3 DUP5 SUB SLT ISZERO PUSH2 0xA82 JUMPI PUSH2 0xA81 PUSH2 0x7B9 JUMP JUMPDEST JUMPDEST PUSH1 0x0 DUP3 ADD CALLDATALOAD PUSH8 0xFFFFFFFFFFFFFFFF DUP2 GT ISZERO PUSH2 0xAA0 JUMPI PUSH2 0xA9F PUSH2 0x7BE JUMP JUMPDEST JUMPDEST PUSH2 0xAAC DUP5 DUP3 DUP6 ADD PUSH2 0x939 JUMP JUMPDEST SWAP2 POP POP SWAP3 SWAP2 POP POP JUMP JUMPDEST PUSH1 0x0 DUP2 SWAP1 POP SWAP2 SWAP1 POP JUMP JUMPDEST PUSH2 0xAC8 DUP2 PUSH2 0xAB5 JUMP JUMPDEST DUP3 MSTORE POP POP JUMP JUMPDEST PUSH1 0x0 PUSH1 0x20 DUP3 ADD SWAP1 POP PUSH2 0xAE3 PUSH1 0x0 DUP4 ADD DUP5 PUSH2 0xABF JUMP JUMPDEST SWAP3 SWAP2 POP POP JUMP JUMPDEST PUSH1 0x0 PUSH2 0xAF4 DUP3 PUSH2 0x7C3 JUMP JUMPDEST SWAP1 POP SWAP2 SWAP1 POP JUMP JUMPDEST PUSH2 0xB04 DUP2 PUSH2 0xAE9 JUMP JUMPDEST DUP2 EQ PUSH2 0xB0F JUMPI PUSH1 0x0 DUP1 REVERT JUMPDEST POP JUMP JUMPDEST PUSH1 0x0 DUP2 CALLDATALOAD SWAP1 POP PUSH2 0xB21 DUP2 PUSH2 0xAFB JUMP JUMPDEST SWAP3 SWAP2 POP POP JUMP JUMPDEST PUSH1 0x0 PUSH1 0x20 DUP3 DUP5 SUB SLT ISZERO PUSH2 0xB3D JUMPI PUSH2 0xB3C PUSH2 0x7B9 JUMP JUMPDEST JUMPDEST PUSH1 0x0 PUSH2 0xB4B DUP5 DUP3 DUP6 ADD PUSH2 0xB12 JUMP JUMPDEST SWAP2 POP POP SWAP3 SWAP2 POP POP JUMP JUMPDEST PUSH1 0x0 PUSH8 0xFFFFFFFFFFFFFFFF DUP3 GT ISZERO PUSH2 0xB6F JUMPI PUSH2 0xB6E PUSH2 0x83C JUMP JUMPDEST JUMPDEST PUSH2 0xB78 DUP3 PUSH2 0x82B JUMP JUMPDEST SWAP1 POP PUSH1 0x20 DUP2 ADD SWAP1 POP SWAP2 SWAP1 POP JUMP JUMPDEST PUSH1 0x0 PUSH2 0xB98 PUSH2 0xB93 DUP5 PUSH2 0xB54 JUMP JUMPDEST PUSH2 0x89C JUMP JUMPDEST SWAP1 POP DUP3 DUP2 MSTORE PUSH1 0x20 DUP2 ADD DUP5 DUP5 DUP5 ADD GT ISZERO PUSH2 0xBB4 JUMPI PUSH2 0xBB3 PUSH2 0x826 JUMP JUMPDEST JUMPDEST PUSH2 0xBBF DUP5 DUP3 DUP6 PUSH2 0x8E8 JUMP JUMPDEST POP SWAP4 SWAP3 POP POP POP JUMP JUMPDEST PUSH1 0x0 DUP3 PUSH1 0x1F DUP4 ADD SLT PUSH2 0xBDC JUMPI PUSH2 0xBDB PUSH2 0x821 JUMP JUMPDEST JUMPDEST DUP2 CALLDATALOAD PUSH2 0xBEC DUP5 DUP3 PUSH1 0x20 DUP7 ADD PUSH2 0xB85 JUMP JUMPDEST SWAP2 POP POP SWAP3 SWAP2 POP POP JUMP JUMPDEST PUSH1 0x0 DUP1 PUSH1 0x40 DUP4 DUP6 SUB SLT ISZERO PUSH2 0xC0C JUMPI PUSH2 0xC0B PUSH2 0x7B9 JUMP JUMPDEST JUMPDEST PUSH1 0x0 PUSH2 0xC1A DUP6 DUP3 DUP7 ADD PUSH2 0x80C JUMP JUMPDEST SWAP3 POP POP PUSH1 0x20 DUP4 ADD CALLDATALOAD PUSH8 0xFFFFFFFFFFFFFFFF DUP2 GT ISZERO PUSH2 0xC3B JUMPI PUSH2 0xC3A PUSH2 0x7BE JUMP JUMPDEST JUMPDEST PUSH2 0xC47 DUP6 DUP3 DUP7 ADD PUSH2 0xBC7 JUMP JUMPDEST SWAP2 POP POP SWAP3 POP SWAP3 SWAP1 POP JUMP JUMPDEST PUSH1 0x0 DUP1 PUSH1 0x0 PUSH1 0x60 DUP5 DUP7 SUB SLT ISZERO PUSH2 0xC6A JUMPI PUSH2 0xC69 PUSH2 0x7B9 JUMP JUMPDEST JUMPDEST PUSH1 0x0 DUP5 ADD CALLDATALOAD PUSH8 0xFFFFFFFFFFFFFFFF DUP2 GT ISZERO PUSH2 0xC88 JUMPI PUSH2 0xC87 PUSH2 0x7BE JUMP JUMPDEST JUMPDEST PUSH2 0xC94 DUP7 DUP3 DUP8 ADD PUSH2 0x939 JUMP JUMPDEST SWAP4 POP POP PUSH1 0x20 DUP5 ADD CALLDATALOAD PUSH8 0xFFFFFFFFFFFFFFFF DUP2 GT ISZERO PUSH2 0xCB5 JUMPI PUSH2 0xCB4 PUSH2 0x7BE JUMP JUMPDEST JUMPDEST PUSH2 0xCC1 DUP7 DUP3 DUP8 ADD PUSH2 0x939 JUMP JUMPDEST SWAP3 POP POP PUSH1 0x40 DUP5 ADD CALLDATALOAD PUSH8 0xFFFFFFFFFFFFFFFF DUP2 GT ISZERO PUSH2 0xCE2 JUMPI PUSH2 0xCE1 PUSH2 0x7BE JUMP JUMPDEST JUMPDEST PUSH2 0xCEE DUP7 DUP3 DUP8 ADD PUSH2 0x939 JUMP JUMPDEST SWAP2 POP POP SWAP3 POP SWAP3 POP SWAP3 JUMP JUMPDEST PUSH2 0xD01 DUP2 PUSH2 0x7E3 JUMP JUMPDEST DUP3 MSTORE POP POP JUMP JUMPDEST PUSH1 0x0 PUSH1 0x20 DUP3 ADD SWAP1 POP PUSH2 0xD1C PUSH1 0x0 DUP4 ADD DUP5 PUSH2 0xCF8 JUMP JUMPDEST SWAP3 SWAP2 POP POP JUMP JUMPDEST PUSH1 0x0 DUP3 DUP3 MSTORE PUSH1 0x20 DUP3 ADD SWAP1 POP SWAP3 SWAP2 POP POP JUMP JUMPDEST PUSH32 0x4F6E6C792061646D696E00000000000000000000000000000000000000000000 PUSH1 0x0 DUP3 ADD MSTORE POP JUMP JUMPDEST PUSH1 0x0 PUSH2 0xD69 PUSH1 0xA DUP4 PUSH2 0xD22 JUMP JUMPDEST SWAP2 POP PUSH2 0xD74 DUP3 PUSH2 0xD33 JUMP JUMPDEST PUSH1 0x20 DUP3 ADD SWAP1 POP SWAP2 SWAP1 POP JUMP JUMPDEST PUSH1 0x0 PUSH1 0x20 DUP3 ADD SWAP1 POP DUP2 DUP2 SUB PUSH1 0x0 DUP4 ADD MSTORE PUSH2 0xD98 DUP2 PUSH2 0xD5C JUMP JUMPDEST SWAP1 POP SWAP2 SWAP1 POP JUMP JUMPDEST PUSH1 0x0 DUP2 MLOAD SWAP1 POP SWAP2 SWAP1 POP JUMP JUMPDEST PUSH1 0x0 DUP2 SWAP1 POP SWAP3 SWAP2 POP POP JUMP JUMPDEST PUSH1 0x0 JUMPDEST DUP4 DUP2 LT ISZERO PUSH2 0xDD3 JUMPI DUP1 DUP3 ADD MLOAD DUP2 DUP5 ADD MSTORE PUSH1 0x20 DUP2 ADD SWAP1 POP PUSH2 0xDB8 JUMP JUMPDEST PUSH1 0x0 DUP5 DUP5 ADD MSTORE POP POP POP POP JUMP JUMPDEST PUSH1 0x0 PUSH2 0xDEA DUP3 PUSH2 0xD9F JUMP JUMPDEST PUSH2 0xDF4 DUP2 DUP6 PUSH2 0xDAA JUMP JUMPDEST SWAP4 POP PUSH2 0xE04 DUP2 DUP6 PUSH1 0x20 DUP7 ADD PUSH2 0xDB5 JUMP JUMPDEST DUP1 DUP5 ADD SWAP2 POP POP SWAP3 SWAP2 POP POP JUMP JUMPDEST PUSH1 0x0 PUSH2 0xE1C DUP3 DUP5 PUSH2 0xDDF JUMP JUMPDEST SWAP2 POP DUP2 SWAP1 POP SWAP3 SWAP2 POP POP JUMP JUMPDEST PUSH32 0x496E636F727265637420616E7377657200000000000000000000000000000000 PUSH1 0x0 DUP3 ADD MSTORE POP JUMP JUMPDEST PUSH1 0x0 PUSH2 0xE5D PUSH1 0x10 DUP4 PUSH2 0xD22 JUMP JUMPDEST SWAP2 POP PUSH2 0xE68 DUP3 PUSH2 0xE27 JUMP JUMPDEST PUSH1 0x20 DUP3 ADD SWAP1 POP SWAP2 SWAP1 POP JUMP JUMPDEST PUSH1 0x0 PUSH1 0x20 DUP3 ADD SWAP1 POP DUP2 DUP2 SUB PUSH1 0x0 DUP4 ADD MSTORE PUSH2 0xE8C DUP2 PUSH2 0xE50 JUMP JUMPDEST SWAP1 POP SWAP2 SWAP1 POP JUMP JUMPDEST PUSH1 0x0 PUSH2 0xE9E DUP3 PUSH2 0xD9F JUMP JUMPDEST PUSH2 0xEA8 DUP2 DUP6 PUSH2 0xD22 JUMP JUMPDEST SWAP4 POP PUSH2 0xEB8 DUP2 DUP6 PUSH1 0x20 DUP7 ADD PUSH2 0xDB5 JUMP JUMPDEST PUSH2 0xEC1 DUP2 PUSH2 0x82B JUMP JUMPDEST DUP5 ADD SWAP2 POP POP SWAP3 SWAP2 POP POP JUMP JUMPDEST PUSH1 0x0 PUSH1 0x40 DUP3 ADD SWAP1 POP DUP2 DUP2 SUB PUSH1 0x0 DUP4 ADD MSTORE PUSH2 0xEE6 DUP2 DUP6 PUSH2 0xE93 JUMP JUMPDEST SWAP1 POP DUP2 DUP2 SUB PUSH1 0x20 DUP4 ADD MSTORE PUSH2 0xEFA DUP2 DUP5 PUSH2 0xE93 JUMP JUMPDEST SWAP1 POP SWAP4 SWAP3 POP POP POP JUMP JUMPDEST PUSH32 0x57616C6C657420616C7265616479207365740000000000000000000000000000 PUSH1 0x0 DUP3 ADD MSTORE POP JUMP JUMPDEST PUSH1 0x0 PUSH2 0xF39 PUSH1 0x12 DUP4 PUSH2 0xD22 JUMP JUMPDEST SWAP2 POP PUSH2 0xF44 DUP3 PUSH2 0xF03 JUMP JUMPDEST PUSH1 0x20 DUP3 ADD SWAP1 POP SWAP2 SWAP1 POP JUMP JUMPDEST PUSH1 0x0 PUSH1 0x20 DUP3 ADD SWAP1 POP DUP2 DUP2 SUB PUSH1 0x0 DUP4 ADD MSTORE PUSH2 0xF68 DUP2 PUSH2 0xF2C JUMP JUMPDEST SWAP1 POP SWAP2 SWAP1 POP JUMP JUMPDEST PUSH1 0x0 DUP2 MLOAD SWAP1 POP SWAP2 SWAP1 POP JUMP JUMPDEST PUSH1 0x0 DUP3 DUP3 MSTORE PUSH1 0x20 DUP3 ADD SWAP1 POP SWAP3 SWAP2 POP POP JUMP JUMPDEST PUSH1 0x0 PUSH2 0xF96 DUP3 PUSH2 0xF6F JUMP JUMPDEST PUSH2 0xFA0 DUP2 DUP6 PUSH2 0xF7A JUMP JUMPDEST SWAP4 POP PUSH2 0xFB0 DUP2 DUP6 PUSH1 0x20 DUP7 ADD PUSH2 0xDB5 JUMP JUMPDEST PUSH2 0xFB9 DUP2 PUSH2 0x82B JUMP JUMPDEST DUP5 ADD SWAP2 POP POP SWAP3 SWAP2 POP POP JUMP JUMPDEST PUSH1 0x0 PUSH1 0x20 DUP3 ADD SWAP1 POP DUP2 DUP2 SUB PUSH1 0x0 DUP4 ADD MSTORE PUSH2 0xFDE DUP2 DUP5 PUSH2 0xF8B JUMP JUMPDEST SWAP1 POP SWAP3 SWAP2 POP POP JUMP JUMPDEST PUSH1 0x0 PUSH1 0x20 DUP3 ADD SWAP1 POP DUP2 DUP2 SUB PUSH1 0x0 DUP4 ADD MSTORE PUSH2 0x1000 DUP2 DUP5 PUSH2 0xE93 JUMP JUMPDEST SWAP1 POP SWAP3 SWAP2 POP POP JUMP INVALID LOG2 PUSH5 0x6970667358 0x22 SLT KECCAK256 CALLDATACOPY 0x24 0x4D SWAP13 DUP14 0x2D 0xBC TSTORE STOP 0x2D 0x27 BYTE 0xBE 0xEC SWAP9 REVERT SELFBALANCE GASLIMIT PUSH9 0x1F7971FFD81884D643 RETURN SELFBALANCE 0xB1 DUP8 PUSH5 0x736F6C6343 STOP ADDMOD NOT STOP CALLER "},"methodIdentifiers":{"admin()":"f851a440","createRiddle(string,string,string)":"de43d69e","riddleAnswers(string)":"18d68081","schrodingerWallet()":"17a44e52","setSchrodingerWallet(address)":"21b9c70b","verifyRiddleAndProveLiveness(address,string,string)":"136f47ac","verifyVoiceAndProveLiveness(address,bytes)":"83507951"}}}}}