{
  "_format": "hh-sol-artifact-1",
  "contractName": "SchrodingerWallet",
  "sourceName": "contracts/SchrodingerWallet.sol",
  "abi": [
    {
      "inputs": [
        {
          "internalType": "address",
          "name": "_gaiaOracle",
          "type": "address"
        }
      ],
      "stateMutability": "nonpayable",
      "type": "constructor"
    },
    {
      "inputs": [
        {
          "internalType": "address",
          "name": "owner",
          "type": "address"
        }
      ],
      "name": "OwnableInvalidOwner",
      "type": "error"
    },
    {
      "inputs": [
        {
          "internalType": "address",
          "name": "account",
          "type": "address"
        }
      ],
      "name": "OwnableUnauthorizedAccount",
      "type": "error"
    },
    {
      "anonymous": false,
      "inputs": [
        {
          "indexed": true,
          "internalType": "address",
          "name": "user",
          "type": "address"
        },
        {
          "indexed": false,
          "internalType": "string",
          "name": "activityType",
          "type": "string"
        }
      ],
      "name": "ActivityRecorded",
      "type": "event"
    },
    {
      "anonymous": false,
      "inputs": [
        {
          "indexed": true,
          "internalType": "address",
          "name": "to",
          "type": "address"
        },
        {
          "indexed": false,
          "internalType": "uint256",
          "name": "amount",
          "type": "uint256"
        }
      ],
      "name": "FundsReleased",
      "type": "event"
    },
    {
      "anonymous": false,
      "inputs": [
        {
          "indexed": true,
          "internalType": "address",
          "name": "heir",
          "type": "address"
        },
        {
          "indexed": false,
          "internalType": "uint256",
          "name": "share",
          "type": "uint256"
        }
      ],
      "name": "HeirAdded",
      "type": "event"
    },
    {
      "anonymous": false,
      "inputs": [
        {
          "indexed": true,
          "internalType": "address",
          "name": "heir",
          "type": "address"
        }
      ],
      "name": "HeirApproved",
      "type": "event"
    },
    {
      "anonymous": false,
      "inputs": [
        {
          "indexed": true,
          "internalType": "address",
          "name": "user",
          "type": "address"
        },
        {
          "indexed": false,
          "internalType": "string",
          "name": "proofType",
          "type": "string"
        }
      ],
      "name": "LivenessProven",
      "type": "event"
    },
    {
      "anonymous": false,
      "inputs": [
        {
          "indexed": true,
          "internalType": "address",
          "name": "previousOwner",
          "type": "address"
        },
        {
          "indexed": true,
          "internalType": "address",
          "name": "newOwner",
          "type": "address"
        }
      ],
      "name": "OwnershipTransferred",
      "type": "event"
    },
    {
      "inputs": [
        {
          "internalType": "address",
          "name": "",
          "type": "address"
        },
        {
          "internalType": "uint256",
          "name": "",
          "type": "uint256"
        }
      ],
      "name": "activities",
      "outputs": [
        {
          "internalType": "uint256",
          "name": "timestamp",
          "type": "uint256"
        },
        {
          "internalType": "string",
          "name": "activityType",
          "type": "string"
        },
        {
          "internalType": "bool",
          "name": "completed",
          "type": "bool"
        }
      ],
      "stateMutability": "view",
      "type": "function"
    },
    {
      "inputs": [
        {
          "internalType": "address",
          "name": "_heir",
          "type": "address"
        },
        {
          "internalType": "uint256",
          "name": "_share",
          "type": "uint256"
        },
        {
          "internalType": "bytes32[]",
          "name": "_proof",
          "type": "bytes32[]"
        }
      ],
      "name": "addHeir",
      "outputs": [],
      "stateMutability": "nonpayable",
      "type": "function"
    },
    {
      "inputs": [
        {
          "internalType": "address",
          "name": "_heir",
          "type": "address"
        },
        {
          "internalType": "uint256",
          "name": "_index",
          "type": "uint256"
        }
      ],
      "name": "approveHeir",
      "outputs": [],
      "stateMutability": "nonpayable",
      "type": "function"
    },
    {
      "inputs": [],
      "name": "fundsLocked",
      "outputs": [
        {
          "internalType": "bool",
          "name": "",
          "type": "bool"
        }
      ],
      "stateMutability": "view",
      "type": "function"
    },
    {
      "inputs": [],
      "name": "gaiaOracle",
      "outputs": [
        {
          "internalType": "address",
          "name": "",
          "type": "address"
        }
      ],
      "stateMutability": "view",
      "type": "function"
    },
    {
      "inputs": [
        {
          "internalType": "address",
          "name": "",
          "type": "address"
        }
      ],
      "name": "heirMerkleRoots",
      "outputs": [
        {
          "internalType": "bytes32",
          "name": "",
          "type": "bytes32"
        }
      ],
      "stateMutability": "view",
      "type": "function"
    },
    {
      "inputs": [
        {
          "internalType": "address",
          "name": "",
          "type": "address"
        },
        {
          "internalType": "uint256",
          "name": "",
          "type": "uint256"
        }
      ],
      "name": "heirs",
      "outputs": [
        {
          "internalType": "address",
          "name": "wallet",
          "type": "address"
        },
        {
          "internalType": "uint256",
          "name": "share",
          "type": "uint256"
        },
        {
          "internalType": "bool",
          "name": "approved",
          "type": "bool"
        }
      ],
      "stateMutability": "view",
      "type": "function"
    },
    {
      "inputs": [],
      "name": "inactivityThreshold",
      "outputs": [
        {
          "internalType": "uint256",
          "name": "",
          "type": "uint256"
        }
      ],
      "stateMutability": "view",
      "type": "function"
    },
    {
      "inputs": [],
      "name": "lastActivity",
      "outputs": [
        {
          "internalType": "uint256",
          "name": "",
          "type": "uint256"
        }
      ],
      "stateMutability": "view",
      "type": "function"
    },
    {
      "inputs": [],
      "name": "owner",
      "outputs": [
        {
          "internalType": "address",
          "name": "",
          "type": "address"
        }
      ],
      "stateMutability": "view",
      "type": "function"
    },
    {
      "inputs": [
        {
          "internalType": "string",
          "name": "",
          "type": "string"
        },
        {
          "internalType": "string",
          "name": "",
          "type": "string"
        }
      ],
      "name": "proveLivenessViaRiddle",
      "outputs": [],
      "stateMutability": "nonpayable",
      "type": "function"
    },
    {
      "inputs": [
        {
          "internalType": "bytes",
          "name": "",
          "type": "bytes"
        }
      ],
      "name": "proveLivenessViaVoice",
      "outputs": [],
      "stateMutability": "nonpayable",
      "type": "function"
    },
    {
      "inputs": [],
      "name": "releaseToHeirs",
      "outputs": [],
      "stateMutability": "nonpayable",
      "type": "function"
    },
    {
      "inputs": [],
      "name": "renounceOwnership",
      "outputs": [],
      "stateMutability": "nonpayable",
      "type": "function"
    },
    {
      "inputs": [
        {
          "internalType": "address",
          "name": "newOwner",
          "type": "address"
        }
      ],
      "name": "transferOwnership",
      "outputs": [],
      "stateMutability": "nonpayable",
      "type": "function"
    },
    {
      "stateMutability": "payable",
      "type": "receive"
    }
  ],
  "bytecode": "0x60806040526276a7006004556001600660146101000a81548160ff02191690831515021790555034801561003257600080fd5b506040516125703803806125708339818101604052810190610054919061024c565b33600073ffffffffffffffffffffffffffffffffffffffff168173ffffffffffffffffffffffffffffffffffffffff16036100c75760006040517f1e4fbdf70000000000000000000000000000000000000000000000000000000081526004016100be9190610288565b60405180910390fd5b6100d68161012560201b60201c565b5080600660006101000a81548173ffffffffffffffffffffffffffffffffffffffff021916908373ffffffffffffffffffffffffffffffffffffffff16021790555042600581905550506102a3565b60008060009054906101000a900473ffffffffffffffffffffffffffffffffffffffff169050816000806101000a81548173ffffffffffffffffffffffffffffffffffffffff021916908373ffffffffffffffffffffffffffffffffffffffff1602179055508173ffffffffffffffffffffffffffffffffffffffff168173ffffffffffffffffffffffffffffffffffffffff167f8be0079c531659141344cd1fd0a4f28419497f9722a3daafe3b4186f6b6457e060405160405180910390a35050565b600080fd5b600073ffffffffffffffffffffffffffffffffffffffff82169050919050565b6000610219826101ee565b9050919050565b6102298161020e565b811461023457600080fd5b50565b60008151905061024681610220565b92915050565b600060208284031215610262576102616101e9565b5b600061027084828501610237565b91505092915050565b6102828161020e565b82525050565b600060208201905061029d6000830184610279565b92915050565b6122be806102b26000396000f3fe6080604052600436106100ec5760003560e01c8063988979201161008a578063def8c4ca11610059578063def8c4ca146102dd578063e03b7b8514610308578063f2fde38b14610333578063fec008c31461035c576100f3565b8063988979201461020b5780639ec862761461024a578063b89fec2a14610275578063d69310631461029e576100f3565b806380eac739116100c657806380eac7391461016357806388124acf1461018c5780638c0a2738146101c95780638da5cb5b146101e0576100f3565b80631d401d40146100f85780635fd51b3714610121578063715018a61461014c576100f3565b366100f357005b600080fd5b34801561010457600080fd5b5061011f600480360381019061011a9190611530565b610385565b005b34801561012d57600080fd5b50610136610536565b604051610143919061157f565b60405180910390f35b34801561015857600080fd5b5061016161053c565b005b34801561016f57600080fd5b5061018a600480360381019061018591906115ff565b610550565b005b34801561019857600080fd5b506101b360048036038101906101ae9190611673565b6107b3565b6040516101c091906116b9565b60405180910390f35b3480156101d557600080fd5b506101de6107cb565b005b3480156101ec57600080fd5b506101f5610cf3565b60405161020291906116e3565b60405180910390f35b34801561021757600080fd5b50610232600480360381019061022d9190611530565b610d1c565b604051610241939291906117a9565b60405180910390f35b34801561025657600080fd5b5061025f610df8565b60405161026c919061157f565b60405180910390f35b34801561028157600080fd5b5061029c60048036038101906102979190611917565b610dfe565b005b3480156102aa57600080fd5b506102c560048036038101906102c09190611530565b610f1c565b6040516102d49392919061198f565b60405180910390f35b3480156102e957600080fd5b506102f2610f90565b6040516102ff91906119c6565b60405180910390f35b34801561031457600080fd5b5061031d610fa3565b60405161032a91906116e3565b60405180910390f35b34801561033f57600080fd5b5061035a60048036038101906103559190611673565b610fc9565b005b34801561036857600080fd5b50610383600480360381019061037e9190611a82565b61104f565b005b8173ffffffffffffffffffffffffffffffffffffffff16600160003373ffffffffffffffffffffffffffffffffffffffff1673ffffffffffffffffffffffffffffffffffffffff16815260200190815260200160002082815481106103ed576103ec611acb565b5b906000526020600020906003020160000160009054906101000a900473ffffffffffffffffffffffffffffffffffffffff1673ffffffffffffffffffffffffffffffffffffffff1614610475576040517f08c379a000000000000000000000000000000000000000000000000000000000815260040161046c90611b46565b60405180910390fd5b60018060003373ffffffffffffffffffffffffffffffffffffffff1673ffffffffffffffffffffffffffffffffffffffff16815260200190815260200160002082815481106104c7576104c6611acb565b5b906000526020600020906003020160020160006101000a81548160ff0219169083151502179055508173ffffffffffffffffffffffffffffffffffffffff167fa4bed137fa6741a63a153dd6780f430c0e03ebf0fc71a1325408232bb5e5b06360405160405180910390a25050565b60055481565b61054461116c565b61054e60006111f3565b565b61055861116c565b6000848460405160200161056d929190611bcf565b604051602081830303815290604052805190602001209050610610838380806020026020016040519081016040528093929190818152602001838360200280828437600081840152601f19601f82011690508083019250505050505050600260003373ffffffffffffffffffffffffffffffffffffffff1673ffffffffffffffffffffffffffffffffffffffff16815260200190815260200160002054836112b7565b61064f576040517f08c379a000000000000000000000000000000000000000000000000000000000815260040161064690611c47565b60405180910390fd5b600160003373ffffffffffffffffffffffffffffffffffffffff1673ffffffffffffffffffffffffffffffffffffffff16815260200190815260200160002060405180606001604052808773ffffffffffffffffffffffffffffffffffffffff16815260200186815260200160001515815250908060018154018082558091505060019003906000526020600020906003020160009091909190915060008201518160000160006101000a81548173ffffffffffffffffffffffffffffffffffffffff021916908373ffffffffffffffffffffffffffffffffffffffff1602179055506020820151816001015560408201518160020160006101000a81548160ff02191690831515021790555050508473ffffffffffffffffffffffffffffffffffffffff167f53ecd725315076d49de41e105a400b4659b4eb2060f6677e74e2a4cb645b4785856040516107a4919061157f565b60405180910390a25050505050565b60026020528060005260406000206000915090505481565b6004546005546107db9190611c96565b421161081c576040517f08c379a000000000000000000000000000000000000000000000000000000000815260040161081390611d16565b60405180910390fd5b6000600160003373ffffffffffffffffffffffffffffffffffffffff1673ffffffffffffffffffffffffffffffffffffffff16815260200190815260200160002080549050116108a1576040517f08c379a000000000000000000000000000000000000000000000000000000000815260040161089890611d82565b60405180910390fd5b600080600090505b600160003373ffffffffffffffffffffffffffffffffffffffff1673ffffffffffffffffffffffffffffffffffffffff168152602001908152602001600020805490508110156109e657600160003373ffffffffffffffffffffffffffffffffffffffff1673ffffffffffffffffffffffffffffffffffffffff168152602001908152602001600020818154811061094457610943611acb565b5b906000526020600020906003020160020160009054906101000a900460ff16156109d957600160003373ffffffffffffffffffffffffffffffffffffffff1673ffffffffffffffffffffffffffffffffffffffff16815260200190815260200160002081815481106109b9576109b8611acb565b5b906000526020600020906003020160010154826109d69190611c96565b91505b80806001019150506108a9565b50600047905060005b600160003373ffffffffffffffffffffffffffffffffffffffff1673ffffffffffffffffffffffffffffffffffffffff16815260200190815260200160002080549050811015610cd357600160003373ffffffffffffffffffffffffffffffffffffffff1673ffffffffffffffffffffffffffffffffffffffff1681526020019081526020016000208181548110610a8a57610a89611acb565b5b906000526020600020906003020160020160009054906101000a900460ff1615610cc657600083600160003373ffffffffffffffffffffffffffffffffffffffff1673ffffffffffffffffffffffffffffffffffffffff1681526020019081526020016000208381548110610b0257610b01611acb565b5b90600052602060002090600302016001015484610b1f9190611da2565b610b299190611e13565b9050600160003373ffffffffffffffffffffffffffffffffffffffff1673ffffffffffffffffffffffffffffffffffffffff1681526020019081526020016000208281548110610b7c57610b7b611acb565b5b906000526020600020906003020160000160009054906101000a900473ffffffffffffffffffffffffffffffffffffffff1673ffffffffffffffffffffffffffffffffffffffff166108fc829081150290604051600060405180830381858888f19350505050158015610bf3573d6000803e3d6000fd5b50600160003373ffffffffffffffffffffffffffffffffffffffff1673ffffffffffffffffffffffffffffffffffffffff1681526020019081526020016000208281548110610c4557610c44611acb565b5b906000526020600020906003020160000160009054906101000a900473ffffffffffffffffffffffffffffffffffffffff1673ffffffffffffffffffffffffffffffffffffffff167f221c08a06b07a64803b3787861a3f276212fcccb51c2e6234077a9b8cb13047a82604051610cbc919061157f565b60405180910390a2505b80806001019150506109ef565b506000600660146101000a81548160ff0219169083151502179055505050565b60008060009054906101000a900473ffffffffffffffffffffffffffffffffffffffff16905090565b60036020528160005260406000208181548110610d3857600080fd5b906000526020600020906003020160009150915050806000015490806001018054610d6290611e73565b80601f0160208091040260200160405190810160405280929190818152602001828054610d8e90611e73565b8015610ddb5780601f10610db057610100808354040283529160200191610ddb565b820191906000526020600020905b815481529060010190602001808311610dbe57829003601f168201915b5050505050908060020160009054906101000a900460ff16905083565b60045481565b600660009054906101000a900473ffffffffffffffffffffffffffffffffffffffff1673ffffffffffffffffffffffffffffffffffffffff163373ffffffffffffffffffffffffffffffffffffffff1614610e8e576040517f08c379a0000000000000000000000000000000000000000000000000000000008152600401610e8590611ef0565b60405180910390fd5b610ecc6040518060400160405280601081526020017f526964646c65204368616c6c656e6765000000000000000000000000000000008152506112ce565b3373ffffffffffffffffffffffffffffffffffffffff167fabdff53da247641906cd03d85afffcb1fba01409e570c55f544e388cb93ac11e604051610f1090611f5c565b60405180910390a25050565b60016020528160005260406000208181548110610f3857600080fd5b9060005260206000209060030201600091509150508060000160009054906101000a900473ffffffffffffffffffffffffffffffffffffffff16908060010154908060020160009054906101000a900460ff16905083565b600660149054906101000a900460ff1681565b600660009054906101000a900473ffffffffffffffffffffffffffffffffffffffff1681565b610fd161116c565b600073ffffffffffffffffffffffffffffffffffffffff168173ffffffffffffffffffffffffffffffffffffffff16036110435760006040517f1e4fbdf700000000000000000000000000000000000000000000000000000000815260040161103a91906116e3565b60405180910390fd5b61104c816111f3565b50565b600660009054906101000a900473ffffffffffffffffffffffffffffffffffffffff1673ffffffffffffffffffffffffffffffffffffffff163373ffffffffffffffffffffffffffffffffffffffff16146110df576040517f08c379a00000000000000000000000000000000000000000000000000000000081526004016110d690611ef0565b60405180910390fd5b61111d6040518060400160405280601281526020017f566f69636520566572696669636174696f6e00000000000000000000000000008152506112ce565b3373ffffffffffffffffffffffffffffffffffffffff167fabdff53da247641906cd03d85afffcb1fba01409e570c55f544e388cb93ac11e60405161116190611fc8565b60405180910390a250565b6111746113ee565b73ffffffffffffffffffffffffffffffffffffffff16611192610cf3565b73ffffffffffffffffffffffffffffffffffffffff16146111f1576111b56113ee565b6040517f118cdaa70000000000000000000000000000000000000000000000000000000081526004016111e891906116e3565b60405180910390fd5b565b60008060009054906101000a900473ffffffffffffffffffffffffffffffffffffffff169050816000806101000a81548173ffffffffffffffffffffffffffffffffffffffff021916908373ffffffffffffffffffffffffffffffffffffffff1602179055508173ffffffffffffffffffffffffffffffffffffffff168173ffffffffffffffffffffffffffffffffffffffff167f8be0079c531659141344cd1fd0a4f28419497f9722a3daafe3b4186f6b6457e060405160405180910390a35050565b6000826112c485846113f6565b1490509392505050565b600360003373ffffffffffffffffffffffffffffffffffffffff1673ffffffffffffffffffffffffffffffffffffffff16815260200190815260200160002060405180606001604052804281526020018381526020016001151581525090806001815401808255809150506001900390600052602060002090600302016000909190919091506000820151816000015560208201518160010190816113739190612194565b5060408201518160020160006101000a81548160ff0219169083151502179055505050426005819055503373ffffffffffffffffffffffffffffffffffffffff167fd608bac99c845c8184fc012e6062bb6155fb714459658bb543ebeccd37c82a67826040516113e39190612266565b60405180910390a250565b600033905090565b60008082905060005b845181101561143b5761142c8286838151811061141f5761141e611acb565b5b6020026020010151611446565b915080806001019150506113ff565b508091505092915050565b600081831061145e576114598284611471565b611469565b6114688383611471565b5b905092915050565b600082600052816020526040600020905092915050565b6000604051905090565b600080fd5b600080fd5b600073ffffffffffffffffffffffffffffffffffffffff82169050919050565b60006114c78261149c565b9050919050565b6114d7816114bc565b81146114e257600080fd5b50565b6000813590506114f4816114ce565b92915050565b6000819050919050565b61150d816114fa565b811461151857600080fd5b50565b60008135905061152a81611504565b92915050565b6000806040838503121561154757611546611492565b5b6000611555858286016114e5565b92505060206115668582860161151b565b9150509250929050565b611579816114fa565b82525050565b60006020820190506115946000830184611570565b92915050565b600080fd5b600080fd5b600080fd5b60008083601f8401126115bf576115be61159a565b5b8235905067ffffffffffffffff8111156115dc576115db61159f565b5b6020830191508360208202830111156115f8576115f76115a4565b5b9250929050565b6000806000806060858703121561161957611618611492565b5b6000611627878288016114e5565b94505060206116388782880161151b565b935050604085013567ffffffffffffffff81111561165957611658611497565b5b611665878288016115a9565b925092505092959194509250565b60006020828403121561168957611688611492565b5b6000611697848285016114e5565b91505092915050565b6000819050919050565b6116b3816116a0565b82525050565b60006020820190506116ce60008301846116aa565b92915050565b6116dd816114bc565b82525050565b60006020820190506116f860008301846116d4565b92915050565b600081519050919050565b600082825260208201905092915050565b60005b8381101561173857808201518184015260208101905061171d565b60008484015250505050565b6000601f19601f8301169050919050565b6000611760826116fe565b61176a8185611709565b935061177a81856020860161171a565b61178381611744565b840191505092915050565b60008115159050919050565b6117a38161178e565b82525050565b60006060820190506117be6000830186611570565b81810360208301526117d08185611755565b90506117df604083018461179a565b949350505050565b600080fd5b7f4e487b7100000000000000000000000000000000000000000000000000000000600052604160045260246000fd5b61182482611744565b810181811067ffffffffffffffff82111715611843576118426117ec565b5b80604052505050565b6000611856611488565b9050611862828261181b565b919050565b600067ffffffffffffffff821115611882576118816117ec565b5b61188b82611744565b9050602081019050919050565b82818337600083830152505050565b60006118ba6118b584611867565b61184c565b9050828152602081018484840111156118d6576118d56117e7565b5b6118e1848285611898565b509392505050565b600082601f8301126118fe576118fd61159a565b5b813561190e8482602086016118a7565b91505092915050565b6000806040838503121561192e5761192d611492565b5b600083013567ffffffffffffffff81111561194c5761194b611497565b5b611958858286016118e9565b925050602083013567ffffffffffffffff81111561197957611978611497565b5b611985858286016118e9565b9150509250929050565b60006060820190506119a460008301866116d4565b6119b16020830185611570565b6119be604083018461179a565b949350505050565b60006020820190506119db600083018461179a565b92915050565b600067ffffffffffffffff8211156119fc576119fb6117ec565b5b611a0582611744565b9050602081019050919050565b6000611a25611a20846119e1565b61184c565b905082815260208101848484011115611a4157611a406117e7565b5b611a4c848285611898565b509392505050565b600082601f830112611a6957611a6861159a565b5b8135611a79848260208601611a12565b91505092915050565b600060208284031215611a9857611a97611492565b5b600082013567ffffffffffffffff811115611ab657611ab5611497565b5b611ac284828501611a54565b91505092915050565b7f4e487b7100000000000000000000000000000000000000000000000000000000600052603260045260246000fd5b7f496e76616c696420686569720000000000000000000000000000000000000000600082015250565b6000611b30600c83611709565b9150611b3b82611afa565b602082019050919050565b60006020820190508181036000830152611b5f81611b23565b9050919050565b60008160601b9050919050565b6000611b7e82611b66565b9050919050565b6000611b9082611b73565b9050919050565b611ba8611ba3826114bc565b611b85565b82525050565b6000819050919050565b611bc9611bc4826114fa565b611bae565b82525050565b6000611bdb8285611b97565b601482019150611beb8284611bb8565b6020820191508190509392505050565b7f496e76616c69642070726f6f6600000000000000000000000000000000000000600082015250565b6000611c31600d83611709565b9150611c3c82611bfb565b602082019050919050565b60006020820190508181036000830152611c6081611c24565b9050919050565b7f4e487b7100000000000000000000000000000000000000000000000000000000600052601160045260246000fd5b6000611ca1826114fa565b9150611cac836114fa565b9250828201905080821115611cc457611cc3611c67565b5b92915050565b7f496e616374697669747920706572696f64206e6f74206d657400000000000000600082015250565b6000611d00601983611709565b9150611d0b82611cca565b602082019050919050565b60006020820190508181036000830152611d2f81611cf3565b9050919050565b7f4e6f2068656972732064657369676e6174656400000000000000000000000000600082015250565b6000611d6c601383611709565b9150611d7782611d36565b602082019050919050565b60006020820190508181036000830152611d9b81611d5f565b9050919050565b6000611dad826114fa565b9150611db8836114fa565b9250828202611dc6816114fa565b91508282048414831517611ddd57611ddc611c67565b5b5092915050565b7f4e487b7100000000000000000000000000000000000000000000000000000000600052601260045260246000fd5b6000611e1e826114fa565b9150611e29836114fa565b925082611e3957611e38611de4565b5b828204905092915050565b7f4e487b7100000000000000000000000000000000000000000000000000000000600052602260045260246000fd5b60006002820490506001821680611e8b57607f821691505b602082108103611e9e57611e9d611e44565b5b50919050565b7f4f6e6c7920476169612041492063616e2063616c6c2074686973000000000000600082015250565b6000611eda601a83611709565b9150611ee582611ea4565b602082019050919050565b60006020820190508181036000830152611f0981611ecd565b9050919050565b7f526964646c650000000000000000000000000000000000000000000000000000600082015250565b6000611f46600683611709565b9150611f5182611f10565b602082019050919050565b60006020820190508181036000830152611f7581611f39565b9050919050565b7f566f696365000000000000000000000000000000000000000000000000000000600082015250565b6000611fb2600583611709565b9150611fbd82611f7c565b602082019050919050565b60006020820190508181036000830152611fe181611fa5565b9050919050565b60008190508160005260206000209050919050565b60006020601f8301049050919050565b600082821b905092915050565b60006008830261204a7fffffffffffffffffffffffffffffffffffffffffffffffffffffffffffffffff8261200d565b612054868361200d565b95508019841693508086168417925050509392505050565b6000819050919050565b600061209161208c612087846114fa565b61206c565b6114fa565b9050919050565b6000819050919050565b6120ab83612076565b6120bf6120b782612098565b84845461201a565b825550505050565b600090565b6120d46120c7565b6120df8184846120a2565b505050565b5b81811015612103576120f86000826120cc565b6001810190506120e5565b5050565b601f8211156121485761211981611fe8565b61212284611ffd565b81016020851015612131578190505b61214561213d85611ffd565b8301826120e4565b50505b505050565b600082821c905092915050565b600061216b6000198460080261214d565b1980831691505092915050565b6000612184838361215a565b9150826002028217905092915050565b61219d826116fe565b67ffffffffffffffff8111156121b6576121b56117ec565b5b6121c08254611e73565b6121cb828285612107565b600060209050601f8311600181146121fe57600084156121ec578287015190505b6121f68582612178565b86555061225e565b601f19841661220c86611fe8565b60005b828110156122345784890151825560018201915060208501945060208101905061220f565b86831015612251578489015161224d601f89168261215a565b8355505b6001600288020188555050505b505050505050565b600060208201905081810360008301526122808184611755565b90509291505056fea26469706673582212207bd17bb18567062a61622e2fae3d317cedca6ac8ee2fc3cb316a6be5f9955a8364736f6c63430008190033",
  "linkReferences": {},
  "deployedLinkReferences": {}
}