{
  "_format": "hh-sol-artifact-1",
  "contractName": "GaiaOracle",
  "sourceName": "contracts/GaiaOracle.sol",
  "abi": [
    {
      "inputs": [
        {
          "internalType": "address payable",
          "name": "_schrodingerWallet",
          "type": "address"
        }
      ],
      "stateMutability": "nonpayable",
      "type": "constructor"
    },
    {
      "anonymous": false,
      "inputs": [
        {
          "indexed": true,
          "internalType": "address",
          "name": "user",
          "type": "address"
        }
      ],
      "name": "BiometricVerified",
      "type": "event"
    },
    {
      "anonymous": false,
      "inputs": [
        {
          "indexed": true,
          "internalType": "string",
          "name": "riddleId",
          "type": "string"
        },
        {
          "indexed": false,
          "internalType": "string",
          "name": "question",
          "type": "string"
        }
      ],
      "name": "RiddleCreated",
      "type": "event"
    },
    {
      "inputs": [],
      "name": "admin",
      "outputs": [
        {
          "internalType": "address",
          "name": "",
          "type": "address"
        }
      ],
      "stateMutability": "view",
      "type": "function"
    },
    {
      "inputs": [
        {
          "internalType": "string",
          "name": "_riddleId",
          "type": "string"
        },
        {
          "internalType": "string",
          "name": "_question",
          "type": "string"
        },
        {
          "internalType": "string",
          "name": "_answer",
          "type": "string"
        }
      ],
      "name": "createRiddle",
      "outputs": [],
      "stateMutability": "nonpayable",
      "type": "function"
    },
    {
      "inputs": [
        {
          "internalType": "string",
          "name": "",
          "type": "string"
        }
      ],
      "name": "riddleAnswers",
      "outputs": [
        {
          "internalType": "bytes32",
          "name": "",
          "type": "bytes32"
        }
      ],
      "stateMutability": "view",
      "type": "function"
    },
    {
      "inputs": [],
      "name": "schrodingerWallet",
      "outputs": [
        {
          "internalType": "contract SchrodingerWallet",
          "name": "",
          "type": "address"
        }
      ],
      "stateMutability": "view",
      "type": "function"
    },
    {
      "inputs": [
        {
          "internalType": "address payable",
          "name": "_schrodingerWallet",
          "type": "address"
        }
      ],
      "name": "setSchrodingerWallet",
      "outputs": [],
      "stateMutability": "nonpayable",
      "type": "function"
    },
    {
      "inputs": [
        {
          "internalType": "address",
          "name": "_user",
          "type": "address"
        },
        {
          "internalType": "string",
          "name": "_riddleId",
          "type": "string"
        },
        {
          "internalType": "string",
          "name": "_answer",
          "type": "string"
        }
      ],
      "name": "verifyRiddleAndProveLiveness",
      "outputs": [],
      "stateMutability": "nonpayable",
      "type": "function"
    },
    {
      "inputs": [
        {
          "internalType": "address",
          "name": "_user",
          "type": "address"
        },
        {
          "internalType": "bytes",
          "name": "_voiceSignature",
          "type": "bytes"
        }
      ],
      "name": "verifyVoiceAndProveLiveness",
      "outputs": [],
      "stateMutability": "nonpayable",
      "type": "function"
    }
  ],
  "bytecode": "0x608060405234801561001057600080fd5b506040516111cb3803806111cb83398181016040528101906100329190610151565b336000806101000a81548173ffffffffffffffffffffffffffffffffffffffff021916908373ffffffffffffffffffffffffffffffffffffffff160217905550600073ffffffffffffffffffffffffffffffffffffffff168173ffffffffffffffffffffffffffffffffffffffff16146100e85780600160006101000a81548173ffffffffffffffffffffffffffffffffffffffff021916908373ffffffffffffffffffffffffffffffffffffffff1602179055505b5061017e565b600080fd5b600073ffffffffffffffffffffffffffffffffffffffff82169050919050565b600061011e826100f3565b9050919050565b61012e81610113565b811461013957600080fd5b50565b60008151905061014b81610125565b92915050565b600060208284031215610167576101666100ee565b5b60006101758482850161013c565b91505092915050565b61103e8061018d6000396000f3fe608060405234801561001057600080fd5b506004361061007d5760003560e01c806321b9c70b1161005b57806321b9c70b146100ec5780638350795114610108578063de43d69e14610124578063f851a440146101405761007d565b8063136f47ac1461008257806317a44e521461009e57806318d68081146100bc575b600080fd5b61009c60048036038101906100979190610967565b61015e565b005b6100a6610349565b6040516100b39190610a51565b60405180910390f35b6100d660048036038101906100d19190610a6c565b61036f565b6040516100e39190610ace565b60405180910390f35b61010660048036038101906101019190610b27565b61039d565b005b610122600480360381019061011d9190610bf5565b610500565b005b61013e60048036038101906101399190610c51565b610662565b005b61014861078b565b6040516101559190610d07565b60405180910390f35b60008054906101000a900473ffffffffffffffffffffffffffffffffffffffff1673ffffffffffffffffffffffffffffffffffffffff163373ffffffffffffffffffffffffffffffffffffffff16146101ec576040517f08c379a00000000000000000000000000000000000000000000000000000000081526004016101e390610d7f565b60405180910390fd5b806040516020016101fd9190610e10565b604051602081830303815290604052805190602001206002836040516102239190610e10565b90815260200160405180910390205414610272576040517f08c379a000000000000000000000000000000000000000000000000000000000815260040161026990610e73565b60405180910390fd5b600160009054906101000a900473ffffffffffffffffffffffffffffffffffffffff1673ffffffffffffffffffffffffffffffffffffffff1663b89fec2a83836040518363ffffffff1660e01b81526004016102cf929190610ecc565b600060405180830381600087803b1580156102e957600080fd5b505af11580156102fd573d6000803e3d6000fd5b505050508273ffffffffffffffffffffffffffffffffffffffff167f833bedda8ba73ebcf1138b07b08999d0aa620d66cf30c4ecbde070ea6f3a3c6060405160405180910390a2505050565b600160009054906101000a900473ffffffffffffffffffffffffffffffffffffffff1681565b6002818051602081018201805184825260208301602085012081835280955050505050506000915090505481565b60008054906101000a900473ffffffffffffffffffffffffffffffffffffffff1673ffffffffffffffffffffffffffffffffffffffff163373ffffffffffffffffffffffffffffffffffffffff161461042b576040517f08c379a000000000000000000000000000000000000000000000000000000000815260040161042290610d7f565b60405180910390fd5b600073ffffffffffffffffffffffffffffffffffffffff16600160009054906101000a900473ffffffffffffffffffffffffffffffffffffffff1673ffffffffffffffffffffffffffffffffffffffff16146104bc576040517f08c379a00000000000000000000000000000000000000000000000000000000081526004016104b390610f4f565b60405180910390fd5b80600160006101000a81548173ffffffffffffffffffffffffffffffffffffffff021916908373ffffffffffffffffffffffffffffffffffffffff16021790555050565b60008054906101000a900473ffffffffffffffffffffffffffffffffffffffff1673ffffffffffffffffffffffffffffffffffffffff163373ffffffffffffffffffffffffffffffffffffffff161461058e576040517f08c379a000000000000000000000000000000000000000000000000000000000815260040161058590610d7f565b60405180910390fd5b600160009054906101000a900473ffffffffffffffffffffffffffffffffffffffff1673ffffffffffffffffffffffffffffffffffffffff1663fec008c3826040518263ffffffff1660e01b81526004016105e99190610fc4565b600060405180830381600087803b15801561060357600080fd5b505af1158015610617573d6000803e3d6000fd5b505050508173ffffffffffffffffffffffffffffffffffffffff167f833bedda8ba73ebcf1138b07b08999d0aa620d66cf30c4ecbde070ea6f3a3c6060405160405180910390a25050565b60008054906101000a900473ffffffffffffffffffffffffffffffffffffffff1673ffffffffffffffffffffffffffffffffffffffff163373ffffffffffffffffffffffffffffffffffffffff16146106f0576040517f08c379a00000000000000000000000000000000000000000000000000000000081526004016106e790610d7f565b60405180910390fd5b806040516020016107019190610e10565b604051602081830303815290604052805190602001206002846040516107279190610e10565b908152602001604051809103902081905550826040516107479190610e10565b60405180910390207f86e015a9ada3ed3e2ed686b865e03db71833d95a865cd5ee58e9f10990c88ead8360405161077e9190610fe6565b60405180910390a2505050565b60008054906101000a900473ffffffffffffffffffffffffffffffffffffffff1681565b6000604051905090565b600080fd5b600080fd5b600073ffffffffffffffffffffffffffffffffffffffff82169050919050565b60006107ee826107c3565b9050919050565b6107fe816107e3565b811461080957600080fd5b50565b60008135905061081b816107f5565b92915050565b600080fd5b600080fd5b6000601f19601f8301169050919050565b7f4e487b7100000000000000000000000000000000000000000000000000000000600052604160045260246000fd5b6108748261082b565b810181811067ffffffffffffffff821117156108935761089261083c565b5b80604052505050565b60006108a66107af565b90506108b2828261086b565b919050565b600067ffffffffffffffff8211156108d2576108d161083c565b5b6108db8261082b565b9050602081019050919050565b82818337600083830152505050565b600061090a610905846108b7565b61089c565b90508281526020810184848401111561092657610925610826565b5b6109318482856108e8565b509392505050565b600082601f83011261094e5761094d610821565b5b813561095e8482602086016108f7565b91505092915050565b6000806000606084860312156109805761097f6107b9565b5b600061098e8682870161080c565b935050602084013567ffffffffffffffff8111156109af576109ae6107be565b5b6109bb86828701610939565b925050604084013567ffffffffffffffff8111156109dc576109db6107be565b5b6109e886828701610939565b9150509250925092565b6000819050919050565b6000610a17610a12610a0d846107c3565b6109f2565b6107c3565b9050919050565b6000610a29826109fc565b9050919050565b6000610a3b82610a1e565b9050919050565b610a4b81610a30565b82525050565b6000602082019050610a666000830184610a42565b92915050565b600060208284031215610a8257610a816107b9565b5b600082013567ffffffffffffffff811115610aa057610a9f6107be565b5b610aac84828501610939565b91505092915050565b6000819050919050565b610ac881610ab5565b82525050565b6000602082019050610ae36000830184610abf565b92915050565b6000610af4826107c3565b9050919050565b610b0481610ae9565b8114610b0f57600080fd5b50565b600081359050610b2181610afb565b92915050565b600060208284031215610b3d57610b3c6107b9565b5b6000610b4b84828501610b12565b91505092915050565b600067ffffffffffffffff821115610b6f57610b6e61083c565b5b610b788261082b565b9050602081019050919050565b6000610b98610b9384610b54565b61089c565b905082815260208101848484011115610bb457610bb3610826565b5b610bbf8482856108e8565b509392505050565b600082601f830112610bdc57610bdb610821565b5b8135610bec848260208601610b85565b91505092915050565b60008060408385031215610c0c57610c0b6107b9565b5b6000610c1a8582860161080c565b925050602083013567ffffffffffffffff811115610c3b57610c3a6107be565b5b610c4785828601610bc7565b9150509250929050565b600080600060608486031215610c6a57610c696107b9565b5b600084013567ffffffffffffffff811115610c8857610c876107be565b5b610c9486828701610939565b935050602084013567ffffffffffffffff811115610cb557610cb46107be565b5b610cc186828701610939565b925050604084013567ffffffffffffffff811115610ce257610ce16107be565b5b610cee86828701610939565b9150509250925092565b610d01816107e3565b82525050565b6000602082019050610d1c6000830184610cf8565b92915050565b600082825260208201905092915050565b7f4f6e6c792061646d696e00000000000000000000000000000000000000000000600082015250565b6000610d69600a83610d22565b9150610d7482610d33565b602082019050919050565b60006020820190508181036000830152610d9881610d5c565b9050919050565b600081519050919050565b600081905092915050565b60005b83811015610dd3578082015181840152602081019050610db8565b60008484015250505050565b6000610dea82610d9f565b610df48185610daa565b9350610e04818560208601610db5565b80840191505092915050565b6000610e1c8284610ddf565b915081905092915050565b7f496e636f727265637420616e7377657200000000000000000000000000000000600082015250565b6000610e5d601083610d22565b9150610e6882610e27565b602082019050919050565b60006020820190508181036000830152610e8c81610e50565b9050919050565b6000610e9e82610d9f565b610ea88185610d22565b9350610eb8818560208601610db5565b610ec18161082b565b840191505092915050565b60006040820190508181036000830152610ee68185610e93565b90508181036020830152610efa8184610e93565b90509392505050565b7f57616c6c657420616c7265616479207365740000000000000000000000000000600082015250565b6000610f39601283610d22565b9150610f4482610f03565b602082019050919050565b60006020820190508181036000830152610f6881610f2c565b9050919050565b600081519050919050565b600082825260208201905092915050565b6000610f9682610f6f565b610fa08185610f7a565b9350610fb0818560208601610db5565b610fb98161082b565b840191505092915050565b60006020820190508181036000830152610fde8184610f8b565b905092915050565b600060208201905081810360008301526110008184610e93565b90509291505056fea264697066735822122037244d9c8d2dbc5d002d271abeec98fd4745681f7971ffd81884d643f347b18764736f6c63430008190033",
  "linkReferences": {},
  "deployedLinkReferences": {}
}